:020000040800F2
:10000000D80500209D010008D7170008BB1600087E
:10001000D5170008A9020008031D00080000000011
:100020000000000000000000000000006D1A000841
:100030006903000800000000F9170008AD1A000865
:10004000B7010008B7010008B7010008B7010008B0
:10005000B7010008B7010008B7010008B7010008A0
:10006000B7010008B7010008B7010008B701000890
:10007000B7010008B7010008AD020008B701000889
:10008000B7010008B7010008B7010008B701000870
:10009000B7010008B7010008B7010008B701000860
:1000A000B7010008B7010008B7010008B701000850
:1000B000851B0008B7010008B7010008B701000858
:1000C000B7010008B7010008B7010008FD170008D4
:1000D00009180008B7010008B7010008B7010008B7
:1000E000B7010008B7010008B7010008B701000810
:1000F000B7010008B7010008B7010008B701000800
:10010000B7010008B7010008B7010008B7010008EF
:10011000B7010008B7010008B7010008B7010008DF
:10012000B9020008B7010008B7010008B7010008CC
:10013000B7010008B7010008B7010008B7010008BF
:10014000B7010008B7010008B7010008B7010008AF
:10015000B7010008B7010008B7010008B70100089F
:10016000B7010008B7010008B7010008B70100088F
:10017000B7010008B7010008B7010008000000003F
:10018000B7010008B7010008DFF80CD000F07AF8DA
:1001900000480047251D0008D80500200648804774
:1001A00006480047FEE7FEE7FEE7FEE7FEE7FEE75C
:1001B000FEE7FEE7FEE7FEE7311B000889010008C5
:1001C0002DE9F05F0546002092469B46884606468C
:1001D000814640241BE0284641464746224600F01F
:1001E00041F853465A46C01A914110D31146184659
:1001F000224600F028F82D1A67EB01084F462246E8
:100200000120002100F01FF817EB00094E41201ECD
:10021000A4F10104DFDC484631462A464346BDE8E6
:10022000F09FD2B201E000F8012B491EFBD27047CB
:100230000022F6E710B513460A4604461946FFF7B2
:10024000F0FF204610BD202A04DB203A00FA02F11C
:10025000002070479140C2F1200320FA03F31943B4
:1002600090407047202A04DB203A21FA02F0002156
:10027000704721FA02F3D040C2F1200291400843B6
:1002800019467047064C074D06E0E06840F0010350
:1002900094E8070098471034AC42F6D3FFF778FF94
:1002A000B81D0008D81D0008FEE70000014800F056
:1002B0006FB8000078010020014800F069B8000024
:1002C0001801002001681823CAB2103AB2FBF3F2F9
:1002D000054B6FF30901032A9B5CC36500D9091D17
:1002E0008165084670470000A01D000810B5014652
:1002F00000208B698A6A4FF0C07453B1B3F5005F78
:1003000015D072B1012A0CD0022A0AD0032A09D1D1
:1003100004E01AB1012A06D0022A03D1C96AC90130
:1003200000D5012010BDC96AA142FAD010BD002A33
:10033000F7D0012AF2D0022AF3D0032AF3D010BD5D
:1003400030B50468256825F480252560046863605D
:100350008368402B036803D099600068C26030BD99
:100360009A600068C16030BD7047704790F83510E2
:10037000022903D08021416501207047052180F8C2
:1003800035100068016821F001010160002070470C
:100390002DE9F84304464FF00009CDF8009063487A
:1003A0004FF41651A56D0068B0FBF1F72E6894F874
:1003B0005C10082000FA01F131420FD021680A6870
:1003C00052070BD50A6822F004020A6094F85C1008
:1003D0008840A860606D40F00100606594F85C1092
:1003E0004FF0010808FA01F0304208D0216849694D
:1003F000090604D5A860606D40F00200606594F8BD
:100400005C1004208840304208D0216809688907C0
:1004100004D5A860606D40F00400606594F85C103D
:1004200010208840304218D021680968090714D587
:10043000A86020680168490304D50068000308D556
:10044000A16C07E00168C90503D4016821F0080127
:100450000160216C09B12046884794F85C10202087
:100460008840304231D021680968C9062DD5A8607E
:1004700094F8350005282068016806D0490347D55F
:10048000006800031DD4616C1CE021F016010160BE
:100490002068416921F080014161206C08B9A06C9D
:1004A00020B12068016821F00801016094F85C1017
:1004B0003F208840A86084F8349084F83580216D0E
:1004C0001FE0E16B09B120468847606D00282BD002
:1004D000606DC00714D0052084F8350020680168DD
:1004E00021F0010101600098401C0090B84203D83F
:1004F00020680068C007F6D184F8349084F835800D
:10050000E16C002910D001B02046BDE8F043084757
:100510000168C905D5D4016821F01001016084F893
:10052000349084F83580CCE7BDE8F88328000020BB
:100530002DE9F041044600F079F906465CB100254A
:1005400084F83450022084F835002068016821F0D6
:10055000010101600DE00120BDE8F08100F066F9C5
:10056000801B052805D920206065032084F835000C
:10057000F2E720680068C007F0D1226811682048BF
:100580000140D4E901031843D4E903363343184347
:1005900063691843A3691843E3691843236A18433E
:1005A0000843616A042903D1D4E90B1319430843B2
:1005B000106020684069666A20F0070130460E43EB
:1005C000012704280CD1A06A0643E06A40B1204606
:1005D000FFF78CFE20B14020606584F83570BAE7E3
:1005E000206846612046FFF76DFE94F85C203F21AD
:1005F00091408160656584F835700020ACE70000AB
:100600003F8010F02DE9F0410446866D90F83400EB
:10061000002501280DD0012084F8340094F83570AD
:100620000020012F07D084F8340002252846BDE8B9
:10063000F0810220FBE7022784F8357060652046D0
:10064000FFF77EFE94F85C103F208840B060206881
:10065000016841F0160101602068416941F08001A4
:100660004161206C20B12068016841F008010160FF
:100670002068016841F001010160D7E72DE9F84FDA
:10068000DFF87CB100224FF001084FF0030A4FF071
:100690000F090BF1040E00BF0B6808FA02F42340A7
:1006A000A3426ED14D68022D01D0122D0ED1D50876
:1006B00000EB850CDCF820505607F70E09FA07F618
:1006C000B5430E69BE402E43CCF820600668550045
:1006D0000F790AFA05FC07F0030726EA0C06AF407B
:1006E000374307604E68012E05D0022E03D0112E2D
:1006F00001D0122E0ED18668CF6826EA0C06AF40D4
:10070000374387604668A6430C79C4F300149440CD
:1007100034434460C6688C6826EA0C06AC40344317
:10072000C4604C68E40065D5364C256845F48045C6
:100730002560246822F0030504F480440094324CC0
:100740002E19D6F8084895072F0F09FA07F5AC437C
:100750002E4DA84201D1002524E02D4DA84201D103
:1007600001251FE02B4DA84201D102251AE02A4D98
:10077000A84201D1032515E0284DA84202D1042545
:1007800010E037E0264DA84201D105250AE0254DAD
:10079000A84201D1062505E0234DA84201D1072535
:1007A00000E00825BD402543C6F80858DBF80040A6
:1007B0005D464E689C43F60300D51C432C60DEF872
:1007C000004075464E689C43B60300D51C432C6020
:1007D0000B4D08352C684E689C43F60200D51C432F
:1007E0002C60074D0C352C684E689C43B60200D532
:1007F0001C432C60521C102AFFF44EAFBDE8F88F4A
:10080000003C0140443802400030014000000240FA
:100810000004024000080240000C024000100240A8
:100820000014024000180240001C02400148806889
:10083000704700001C0000200248816802781144C3
:10084000816070471C0000200B4810B5016841F41E
:1008500000710160016841F480610160016841F448
:1008600080710160032000F06DF8002000F006F8B0
:1008700000F024F8002010BD003C024070B50D4D82
:1008800004464FF47A712878B1FBF0F00A49096800
:10089000B1FBF0F000F05FFD48B9102C07D2002248
:1008A0002146501E00F02EF800206C6070BD012023
:1008B00070BD00001C000020280000200A4808B578
:1008C000016841F480410160006800F480400090BC
:1008D0000548001F016841F080510160006800F088
:1008E0008050009008BD00004438024000F01F0214
:1008F000012191404009800000F1E020C0F8001182
:1009000070470000F0B40E4B1B680C46C3F3022383
:10091000C3F10705042D00D90425191D072901D2AB
:10092000002300E0DB1E012606FA05F1491E2140E6
:1009300099409E40761E16403143F0BC00F04CBFFB
:100940000CED00E0064900F0070208684FF6FF03CF
:10095000184040EA0220034A104308607047000034
:100960000CED00E00000FA052DE9F0470E46050009
:1009700065D0DFF81481D8F80000F7B200F00F005E
:10098000B04207D288F80070D8F8000000F00F00DD
:10099000B04254D128683D4C810712D5400703D599
:1009A000206840F4E05020602878000703D52068D4
:1009B00040F4604020602068A96820F0F0000843FF
:1009C00020602878C0072DD0304968680839012890
:1009D00012D0022813D0032811D0096889070029F2
:1009E0002DDA216821F0030101432160FFF71EFF8A
:1009F000814641F2883A0EE009688903EFE7096809
:100A00008901ECE7FFF712FFA0EB0901514502D97C
:100A10000320BDE8F0872068696800F00C00B0EBA7
:100A2000810FEFD1D8F80010404601F00F01B1421C
:100A300007D90770006800F00F00B04201D0012014
:100A4000E7E72878400705D52068E96820F4E050FA
:100A5000084320602878000706D52068296920F41B
:100A6000604040EAC100206000F016F82168084AA2
:100A7000C1F30311515CC840064908600020FFF72C
:100A8000FDFE0020C5E70000003C0240083802409F
:100A9000A81D000828000020154810B5006810F0B7
:100AA0000C02144813D01449042A0FD0082A0ED17E
:100AB0000F4C241F2268236802F03F025B0207D517
:100AC0002068C0F38810A0FB010106E0084610BDB5
:100AD0002168C1F38811A1FB00010023FFF770FB1F
:100AE0002168C1F30141491C4900B0FBF1F010BD80
:100AF000083802400024F40040787D012DE9F84FC9
:100B0000050076D02878DFF8F8B2BE4CC00749D08F
:100B1000DBF800105846C1F38101012908D00068B4
:100B2000C0F3810002280AD1201D0068400206D5CA
:100B30002068800336D568680028E2D032E0686813
:100B4000B0F5803F10D0B0F5A02F206810D020F471
:100B500080302060206820F4802020606868A0B188
:100B6000FFF764FE06460CE0206840F48030F4E7AE
:100B700040F480202060F7E7FFF758FE801B6428D0
:100B800073D820688003F7D50CE0FFF74FFE0646C8
:100B900005E000BFFFF74AFE801B6428F0D82068FC
:100BA0008003F7D42878DFF8608280074FF00009CF
:100BB0003ED5DBF80010584611F00C0F09D0006844
:100BC000C0F3810002280BD18D48001F006840024D
:100BD00006D42068800715D5E868012809D111E0FE
:100BE000E868B8B10120C8F80000FFF71FFE06460C
:100BF00005E002E1FFF71AFE801B0228C0D820683A
:100C00008007F7D52068296920F0F80040EAC10084
:100C100020600DE0C8F80090FFF708FE064604E0EB
:100C2000FFF704FE801B02281FD820688007F7D436
:100C30002878000722D5724E744869696C3671B104
:100C400001210160FFF7F2FD074604E0FFF7EEFD2A
:100C5000C01B022809D830688007F7D50EE0C0F81D
:100C60000090FFF7E3FD074605E083E0FFF7DEFDB8
:100C7000C01B02287ED830688007F7D42878400748
:100C800068D5DFF87CA100270AF1380ADAF80000FD
:100C9000C0000BD4DAF8001041F08051CAF80010FF
:100CA000DAF80000012700F080500090584E3068BC
:100CB000C00510D4306840F480703060FFF7B6FD96
:100CC000009005E0FFF7B2FD0099401A022851D8C4
:100CD0003068C005F6D54A4EA868683601280FD09E
:100CE0000528306810D020F001003060306820F016
:100CF00004003060A868B8B1FFF798FD00900FE0DD
:100D0000306840F00100F4E740F004003060F7E79D
:100D1000FFF78CFD0099411A41F28830814264D876
:100D200030688007F4D50EE0FFF780FD009007E003
:100D3000FFF77CFD0099411A41F28830814254D876
:100D400030688007F4D42FB1DAF8001021F0805118
:100D5000CAF80010A869C0B3DBF80010C1F3810124
:100D600002294AD00228484607D0C8F86000FFF799
:100D70005DFD00E039E005463AE04746C8F860000E
:100D8000FFF754FD064604E0FFF750FD801B0228E4
:100D90002BD820688001F7D4D5E907010843A96A58
:100DA0001C4A490802EB01416A6A41EA8211084380
:100DB00095F82C1040EA01611148001F01600120E4
:100DC0003866FFF733FD054605E014E0FFF72EFD1A
:100DD000401B022809D820688001F7D50BE000BF2E
:100DE000FFF724FD401B022802D90320BDE8F88F3D
:100DF00020688001F4D40020F8E70120F6E7000025
:100E0000083802400038024000004742800E474246
:100E1000007000400000FFFF7047000038B5044636
:100E20000068426881684B0605D4CB0703D053069F
:100E300001D5216C04E08B0707D5130605D5616C3D
:100E400001B02046BDE83040084711F4B07F48D0DB
:100E5000930646D54B060AD594F85130032B3DD066
:100E6000636D43F004036365C368836800938B0676
:100E700009D5636D43F001036365836800930368DC
:100E800023F040030360C80506D5606D40F00800FC
:100E90006065206880680090606D002821D020681F
:100EA000416821F0E0014160012084F85100900781
:100EB00018D02068416821F0030141600B4DE06CBF
:100EC00018B10565E06CFFF751FAA06C002808D056
:100ED0000565A06CBDE83840FFF748BAC168806876
:100EE000009038BD2046FFF797FF38BDB1180008C5
:100EF00070B5040005D00025A56294F8510010B12A
:100F000006E0012070BD84F85050204600F030F813
:100F1000022084F851002068016821F0400101603E
:100F2000D4E901010843D4E903121143084361697C
:100F30000843218B01F400710843E1690843216AE9
:100F40000843A16A084321680860A069042101EAF6
:100F50001040616A0843216848602068C16921F433
:100F60000061C1616565012084F85100002070BDF9
:100F70002DE9F04786B0064614216846FFF758F978
:100F80004B4B316800244B480225032705224FF4C0
:100F900080694FF4807A994237D1464914310B6801
:100FA00043F480530B60096801F480510591016896
:100FB00041F0010101600068029400F00100059019
:100FC000F020CDE90005CDE9037269463A48FFF704
:100FD00055FB3B4D394828607806C5E90104C5E951
:100FE00003496C61C5E9064A2C6228466C62FFF72A
:100FF0009FFA08B1FFF7B9F9F564002211462320E2
:10100000AE63FFF77FFC23204CE02E4B99424BD17F
:10101000284910310B6843F480430B60096801F4E0
:1010200080410591016841F004010160016801F00F
:1010300004010591016841F002010160006802AB02
:1010400000F0020005900C20CDE90005904683E8F1
:10105000900169461C48FFF711FB4FF4A050CDE901
:10106000000502AB694683E890011848FFF706FBCC
:10107000184D1748C5E90004AC60C5E903496C6127
:10108000C5E9064A2C6228466C62FFF751FA08B19E
:10109000FFF76BF9F564002211462420AE63FFF7D9
:1010A00031FC2420FFF722FC06B0BDE8F0870000E9
:1010B000003001403038024000000240106402401D
:1010C00018010020003800400008024000040240DF
:1010D00058600240780100202DE9F04104460026C6
:1010E0008068042318B96568B5F5827F0DD094F83F
:1010F0005050012D12D0012584F8505094F85170B1
:101100000025012F0DD0022646E084F851302046FC
:10111000BDE8F04113460A4600F04AB80220BDE897
:10112000F08171B16AB184F851306565A163A2871D
:10113000E28725646564A586E586B0F5004F02D098
:1011400006E0012628E02068016821F48041016062
:10115000E16C13480864E16C1248C863E16C124802
:10116000C864E06C0565E38F2168A26B0C31E06C0C
:10117000FFF748FA20680168490603D4016841F086
:10118000400101602068416841F020014160206811
:10119000416841F00101416084F850503046BEE79B
:1011A000E3180008F7180008C118000870477047D6
:1011B0002DE9F041044690F85000002601280CD09B
:1011C000012084F8500094F8510000256768012838
:1011D0000CD0B7F5827F07D102E00220BDE8F08194
:1011E000A7680FB9042801D0022651E031B12AB115
:1011F00023B194F85100012802D004E0012647E011
:10120000052084F8510065652163A386E386A26307
:10121000A387E3872564656494F8510004283BD0D4
:10122000E16C204808642048E16CC863E16C1F4809
:10123000C864E06C0565E38F2168A26B0C31E06C3B
:10124000FFF7E0F92068416841F001014160A06CBE
:101250000564A06CC563A06CC564A06C0565E38ED5
:101260002268216B0C32A06CFFF7CCF92068016872
:10127000490603D4016841F04001016020684168DB
:1012800041F0200141602068416841F00201416065
:1012900084F850503046A1E7E16C054808640548E1
:1012A000C2E70000ED18000849190008C11800083D
:1012B000E3180008F718000830B590F85030002403
:1012C000012B0BD0012380F85030002341B13AB1FB
:1012D00090F85150012D05D002242DE0022030BDA0
:1012E000012429E0032580F851504365016382867B
:1012F000C28683638387C3870364C16809B11249C7
:1013000000E0124941648168B1F5004F04D10168E1
:101310000A6842F480420A608168002901684A68CC
:101320000ED042F0A0024A6001680A68520603D457
:101330000A6842F040020A6080F85030204630BD12
:1013400042F08002EFE7000099190008B91900087F
:1013500070477047704710B5401EB0F1807F01D3D1
:10136000012010BD4FF0E02460610F21601700F0F4
:1013700033FA0020A06107202061002010BD7047D3
:10138000704730B590F83820012A20D0012280F82B
:101390003820022380F8393003685C6824F0700438
:1013A0005C6003685C680D682C435C6003689C6843
:1013B00024F080049C6003689C6849680C439C602E
:1013C00080F83920002180F83810084630BD02200E
:1013D00030BD10B5040003D094F8390010B107E017
:1013E000012010BD002084F83800204600F00CF8E1
:1013F000022084F83900211D206800F0EDFB012057
:1014000084F83900002010BD08B50068B0F1804FA5
:1014100012D10A48016841F0010101600068002210
:1014200000F00100009011461C20FFF76BFABDE8A8
:1014300008401C20FFF75ABA08BD0000403802409F
:101440000168CA6842F00102CA600068016841F0A0
:10145000010101600020704770B5044690F8380023
:10146000012817D0012584F83850022084F839006B
:101470002068826822F0770222F47F428260086846
:10148000502837D00DDC202859D005DC88B310282F
:1014900041D151E0022070BD302853D040283AD1CC
:1014A0003FE060282ED070280BD0B0F5805F03D0CD
:1014B000B0F5005F2FD110E02068816821F00701AE
:1014C00015E0CB68D1E90121206800F0E5FB216837
:1014D000886840F0770088601DE0CB68D1E9012181
:1014E000206800F0D9FB2068816841F48041816068
:1014F00011E01EE0CA684968206800F0DFFB502157
:10150000206806E0CA684968206800F0E8FB6021AE
:10151000206800F0CBFB84F83950002084F83800B4
:1015200070BDCA684968206800F0C8FB4021206887
:10153000EFE700212068ECE710212068E9E720218F
:101540002068E6E730212068E3E7704770B504467D
:10155000006801694FF00005C943890715D4C168C7
:10156000C943890711D4E91E016101202076206852
:1015700080698007204602D0FFF7E7FF04E000F013
:1015800098F8204600F096F8257620680169C9434E
:10159000490717D4C168C943490713D46FF0040140
:1015A0000161022020762068806910F4407F204687
:1015B00002D0FFF7CAFF04E000F07BF8204600F0FD
:1015C00079F8257620680169C943090716D4C168EE
:1015D000C943090712D46FF0080101610420207685
:1015E0002068C0698007204602D0FFF7AEFF04E004
:1015F00000F05FF8204600F05DF82576206801696C
:10160000C943C90617D4C168C943C90613D46FF0CA
:1016100010010161082020762068C06910F4407F25
:10162000204602D0FFF791FF04E000F042F8204688
:1016300000F040F8257620680169C943C90708D140
:10164000C168C943C90704D1891E0161204600F061
:1016500032F820680169C943090609D4C168C94341
:10166000090605D46FF0800101612046FFF787FE6F
:1016700020680169C943490609D4C168C9434906BC
:1016800005D46FF040010161204600F015F8206894
:101690000169C94389060BD4C168C943890607D4C7
:1016A0006FF0200101612046BDE87040FFF768BE81
:1016B00070BD7047704770477047FEE700B587B050
:1016C00014216846FEF7B4FD16480021026842F076
:1016D00004020260026802F004020592026842F00D
:1016E00001020260026802F001020592026842F003
:1016F00002020260026802F002020592026842F0F1
:10170000080202600068029100F0080005904FF4A2
:101710007040CDE9000169460348FEF7AFFF07B00E
:1017200000BD000030380240000C02400948084962
:101730000160002141608160C1600161416181619E
:101740000162416281620A21C162FFF7D1BB0000E0
:10175000003001402C0000200948084901600021A8
:1017600041608160C16001614161816101624162EA
:1017700081620A21C162FFF7BBBB00000038004054
:101780008400002010B586B0002411480094019414
:101790000294039404944FF080410594016042F256
:1017A000CF01C0E9011440F2E731C0E90314FFF7AB
:1017B00010FE4FF48050009069460548FFF74CFE3C
:1017C000049404A902480594FFF7DBFD06B010BDA0
:1017D000DC000020FEE770470907090E002806DA42
:1017E00000F00F0000F1E02080F8141D704700F1B8
:1017F000E02080F800147047704700000148FFF7B0
:101800000DBB00002C0000200148FFF707BB0000C3
:101810008400002038B50B46009204460022802147
:1018200000F0D9F8002804D0606D40F02000606519
:10183000032038BD38B504461C4845F6C051006841
:10184000B0FBF1F0642148430090FEF7EFFF024641
:10185000206800994B1E009304D2616D41F0200175
:10186000616502E081688907F3D5416821F0A00134
:10187000416064212046FFF7CDFF18B1606D40F054
:1018800020006065A06818B92068C1688068009071
:10189000012084F85100606D0028204602D0FFF737
:1018A000BBFA38BDFFF754FD38BD0000280000200A
:1018B00010B5806B0021C187C186FFF7ADFA10BD5E
:1018C00010B5806B01684A6822F003024A60416DDE
:1018D00041F010014165012180F85110FFF79CFA99
:1018E00010BD10B5806BFFF762FC10BD10B5806BAA
:1018F000FFF730FD10BD10B50146806B096809681F
:10190000C9051ED401684A6822F003024A60416892
:10191000B1F5827F0BD18168B1F5004F02D0B1F5EE
:10192000806F04D101680A6822F040020A60002139
:10193000C187012180F85110416D11B1FFF76CFA98
:1019400010BDFFF733FC10BD70B50546846BFEF784
:101950006DFF024628680068C00519D4642120463E
:10196000FFF758FF18B1606D40F0200060652068F7
:10197000416821F0030141600020E086E0870120FA
:1019800084F85100606D18B12046FFF745FA70BD2C
:101990002046FFF7DEFC70BD016B02680988D1604C
:1019A000016B891C0163C18E491EC186C18E00294D
:1019B00001D1FFF73FBF7047016B4A1C0263026809
:1019C00009781173C18E491EC186C18E002901D1CB
:1019D000FFF730BF70472DE9F0411D4617460E4610
:1019E0000446DDF8188035E0681C33D02DB1FEF7D1
:1019F0001DFFA0EB0800A8422CD32068416821F00D
:101A0000E00141606068B0F5827F0BD1A068B0F55D
:101A1000004F02D0B0F5806F04D12068016821F03A
:101A200040010160A06AB0F5005F0AD1206801683A
:101A30004DF6FF72114001602068016841F40051C9
:101A40000160012084F85100002084F85000032038
:101A5000BDE8F0812068806836EA000004D00020EC
:101A6000B842C1D10020F3E70120F9E77047000038
:101A70000C4800F1100102780A7042784A708278AE
:101A80008A70C078C870A1F10C0002780A7142789F
:101A90004A7182788A71C078C87108220248FFF7BB
:101AA0000BBC0000040000202C000020FEF7C4BE88
:101AB00030B593B030216846FEF7BAFB14210CA86C
:101AC000FEF7B6FB18480025016841F0805101601F
:101AD000006800F0805011901448016841F4804182
:101AE00001600068022400F48040119001200390FE
:101AF00010200490009406940820CDE9075054204B
:101B0000CDE9090404200B906846FEF7F7FF0CA905
:101B10000F2081E83100E002CDE90F0502210CA879
:101B2000FEF722FF13B030BD403802400070004085
:101B30001048016841F4700101600F48016841F0EC
:101B4000010101600C4A00210832116002680B4B50
:101B50001A400260031D0A4A1A60026822F48022B9
:101B6000026005480C30016002495806803908605F
:101B70007047000088ED00E000380240FFFFF6FEED
:101B80001030002410B5FFF773FF0D48DFED0D0A8C
:101B900090ED000A30EE200ADFED0C0A80ED000A1D
:101BA000094890ED000A30EE200A80ED000A08484E
:101BB0000168491C0160BDE810400648FFF7C6BC3B
:101BC00004000020CDCCCC3D08000020CDCC4C3E04
:101BD00000000020DC000020F0B50268234B244DFB
:101BE000244E254F254C4FF0804C984209D060453B
:101BF00007D0A84205D0B04203D0B84201D0A042DD
:101C000004D122F0700E4A6842EA0E0298421BD0BC
:101C1000604519D0A84217D0B04215D0B84213D0B1
:101C2000A04211D0164DA8420ED0164DA8420BD09E
:101C3000154DA84208D0154DA84205D0144DA84214
:101C400002D0144DA84203D122F44075CA682A4339
:101C500002608A68C2620A688262984201D0A04229
:101C600001D10969016301214161F0BD000001401A
:101C70000004004000080040000C00400004014047
:101C8000004001400044014000480140001800406D
:101C9000001C00400020004010B5846842EA032286
:101CA00024F47F440A432243826010BD826822F0FC
:101CB00070020A4342F007018160704710B5036A61
:101CC000046A24F001040462846924F0F00444EA04
:101CD000021423F00A020A438461026210BD10B5A7
:101CE000036A23F0100303628369046A23F47043D8
:101CF00043EA023224F0A00343EA01118261016247
:101D000010BDFEE702E008C8121F08C1002AFAD180
:101D100070477047002001E001C1121F002AFBD16B
:101D20007047000008B5FEF78FFDFFF7C1FEFFF713
:101D3000C5FC1848016841F480010160016801F4A4
:101D400080010091016841F40011016000680022E7
:101D500000F40010009011460E20FEF7D3FD0E2077
:101D6000FEF7C4FD002211463820FEF7CBFD3820D7
:101D7000FEF7BCFDFFF7DAFCFFF7EEFCFFF702FD14
:101D80000548FFF75DFB044808220449B038FFF717
:101D9000A3F9FEE730380240DC0000200C000020F0
:101DA00000061016000610160000000000000000DB
:101DB0000102030406070809D81D000800000020DE
:101DC0002C000000041D0008041E00082C00002048
:101DD000AC050000141D0008000000005C8FA23F4D
:101DE00048E13A3F00000000000000000000000051
:101DF00000000000010000001000000000000000D2
:041E00000024F400C6
:040000050800018965
:00000001FF
